{
  "contractName": "ColorToken",
  "abi": [
    {
      "inputs": [],
      "stateMutability": "nonpayable",
      "type": "constructor"
    },
    {
      "anonymous": false,
      "inputs": [
        {
          "indexed": true,
          "internalType": "address",
          "name": "owner",
          "type": "address"
        },
        {
          "indexed": true,
          "internalType": "address",
          "name": "approved",
          "type": "address"
        },
        {
          "indexed": true,
          "internalType": "uint256",
          "name": "tokenId",
          "type": "uint256"
        }
      ],
      "name": "Approval",
      "type": "event"
    },
    {
      "anonymous": false,
      "inputs": [
        {
          "indexed": true,
          "internalType": "address",
          "name": "owner",
          "type": "address"
        },
        {
          "indexed": true,
          "internalType": "address",
          "name": "operator",
          "type": "address"
        },
        {
          "indexed": false,
          "internalType": "bool",
          "name": "approved",
          "type": "bool"
        }
      ],
      "name": "ApprovalForAll",
      "type": "event"
    },
    {
      "anonymous": false,
      "inputs": [
        {
          "indexed": true,
          "internalType": "address",
          "name": "from",
          "type": "address"
        },
        {
          "indexed": true,
          "internalType": "address",
          "name": "to",
          "type": "address"
        },
        {
          "indexed": true,
          "internalType": "uint256",
          "name": "tokenId",
          "type": "uint256"
        }
      ],
      "name": "Transfer",
      "type": "event"
    },
    {
      "inputs": [
        {
          "internalType": "address",
          "name": "to",
          "type": "address"
        },
        {
          "internalType": "uint256",
          "name": "tokenId",
          "type": "uint256"
        }
      ],
      "name": "approve",
      "outputs": [],
      "stateMutability": "nonpayable",
      "type": "function"
    },
    {
      "inputs": [
        {
          "internalType": "address",
          "name": "owner",
          "type": "address"
        }
      ],
      "name": "balanceOf",
      "outputs": [
        {
          "internalType": "uint256",
          "name": "",
          "type": "uint256"
        }
      ],
      "stateMutability": "view",
      "type": "function",
      "constant": true
    },
    {
      "inputs": [],
      "name": "baseURI",
      "outputs": [
        {
          "internalType": "string",
          "name": "",
          "type": "string"
        }
      ],
      "stateMutability": "view",
      "type": "function",
      "constant": true
    },
    {
      "inputs": [
        {
          "internalType": "uint256",
          "name": "",
          "type": "uint256"
        }
      ],
      "name": "colors",
      "outputs": [
        {
          "internalType": "string",
          "name": "",
          "type": "string"
        }
      ],
      "stateMutability": "view",
      "type": "function",
      "constant": true
    },
    {
      "inputs": [
        {
          "internalType": "uint256",
          "name": "tokenId",
          "type": "uint256"
        }
      ],
      "name": "getApproved",
      "outputs": [
        {
          "internalType": "address",
          "name": "",
          "type": "address"
        }
      ],
      "stateMutability": "view",
      "type": "function",
      "constant": true
    },
    {
      "inputs": [
        {
          "internalType": "address",
          "name": "owner",
          "type": "address"
        },
        {
          "internalType": "address",
          "name": "operator",
          "type": "address"
        }
      ],
      "name": "isApprovedForAll",
      "outputs": [
        {
          "internalType": "bool",
          "name": "",
          "type": "bool"
        }
      ],
      "stateMutability": "view",
      "type": "function",
      "constant": true
    },
    {
      "inputs": [],
      "name": "name",
      "outputs": [
        {
          "internalType": "string",
          "name": "",
          "type": "string"
        }
      ],
      "stateMutability": "view",
      "type": "function",
      "constant": true
    },
    {
      "inputs": [
        {
          "internalType": "uint256",
          "name": "tokenId",
          "type": "uint256"
        }
      ],
      "name": "ownerOf",
      "outputs": [
        {
          "internalType": "address",
          "name": "",
          "type": "address"
        }
      ],
      "stateMutability": "view",
      "type": "function",
      "constant": true
    },
    {
      "inputs": [
        {
          "internalType": "address",
          "name": "from",
          "type": "address"
        },
        {
          "internalType": "address",
          "name": "to",
          "type": "address"
        },
        {
          "internalType": "uint256",
          "name": "tokenId",
          "type": "uint256"
        }
      ],
      "name": "safeTransferFrom",
      "outputs": [],
      "stateMutability": "nonpayable",
      "type": "function"
    },
    {
      "inputs": [
        {
          "internalType": "address",
          "name": "from",
          "type": "address"
        },
        {
          "internalType": "address",
          "name": "to",
          "type": "address"
        },
        {
          "internalType": "uint256",
          "name": "tokenId",
          "type": "uint256"
        },
        {
          "internalType": "bytes",
          "name": "_data",
          "type": "bytes"
        }
      ],
      "name": "safeTransferFrom",
      "outputs": [],
      "stateMutability": "nonpayable",
      "type": "function"
    },
    {
      "inputs": [
        {
          "internalType": "address",
          "name": "operator",
          "type": "address"
        },
        {
          "internalType": "bool",
          "name": "approved",
          "type": "bool"
        }
      ],
      "name": "setApprovalForAll",
      "outputs": [],
      "stateMutability": "nonpayable",
      "type": "function"
    },
    {
      "inputs": [
        {
          "internalType": "bytes4",
          "name": "interfaceId",
          "type": "bytes4"
        }
      ],
      "name": "supportsInterface",
      "outputs": [
        {
          "internalType": "bool",
          "name": "",
          "type": "bool"
        }
      ],
      "stateMutability": "view",
      "type": "function",
      "constant": true
    },
    {
      "inputs": [],
      "name": "symbol",
      "outputs": [
        {
          "internalType": "string",
          "name": "",
          "type": "string"
        }
      ],
      "stateMutability": "view",
      "type": "function",
      "constant": true
    },
    {
      "inputs": [
        {
          "internalType": "uint256",
          "name": "index",
          "type": "uint256"
        }
      ],
      "name": "tokenByIndex",
      "outputs": [
        {
          "internalType": "uint256",
          "name": "",
          "type": "uint256"
        }
      ],
      "stateMutability": "view",
      "type": "function",
      "constant": true
    },
    {
      "inputs": [
        {
          "internalType": "address",
          "name": "owner",
          "type": "address"
        },
        {
          "internalType": "uint256",
          "name": "index",
          "type": "uint256"
        }
      ],
      "name": "tokenOfOwnerByIndex",
      "outputs": [
        {
          "internalType": "uint256",
          "name": "",
          "type": "uint256"
        }
      ],
      "stateMutability": "view",
      "type": "function",
      "constant": true
    },
    {
      "inputs": [
        {
          "internalType": "uint256",
          "name": "tokenId",
          "type": "uint256"
        }
      ],
      "name": "tokenURI",
      "outputs": [
        {
          "internalType": "string",
          "name": "",
          "type": "string"
        }
      ],
      "stateMutability": "view",
      "type": "function",
      "constant": true
    },
    {
      "inputs": [],
      "name": "totalSupply",
      "outputs": [
        {
          "internalType": "uint256",
          "name": "",
          "type": "uint256"
        }
      ],
      "stateMutability": "view",
      "type": "function",
      "constant": true
    },
    {
      "inputs": [
        {
          "internalType": "address",
          "name": "from",
          "type": "address"
        },
        {
          "internalType": "address",
          "name": "to",
          "type": "address"
        },
        {
          "internalType": "uint256",
          "name": "tokenId",
          "type": "uint256"
        }
      ],
      "name": "transferFrom",
      "outputs": [],
      "stateMutability": "nonpayable",
      "type": "function"
    },
    {
      "inputs": [
        {
          "internalType": "string",
          "name": "_color",
          "type": "string"
        }
      ],
      "name": "mint",
      "outputs": [],
      "stateMutability": "nonpayable",
      "type": "function"
    }
  ],
  "bytecode": "0x60806040523480156200001157600080fd5b506040518060400160405280600a81526020017f436f6c6f72546f6b656e000000000000000000000000000000000000000000008152506040518060400160405280600281526020017f4354000000000000000000000000000000000000000000000000000000000000815250620000966301ffc9a760e01b6200011860201b60201c565b8160069080519060200190620000ae929190620001f0565b508060079080519060200190620000c7929190620001f0565b50620000e06380ac58cd60e01b6200011860201b60201c565b620000f8635b5e139f60e01b6200011860201b60201c565b6200011063780e9d6360e01b6200011860201b60201c565b505062000314565b63ffffffff60e01b817bffffffffffffffffffffffffffffffffffffffffffffffffffffffff1916141562000184576040517f08c379a00000000000000000000000000000000000000000000000000000000081526004016200017b90620002e1565b60405180910390fd5b6001600080837bffffffffffffffffffffffffffffffffffffffffffffffffffffffff19167bffffffffffffffffffffffffffffffffffffffffffffffffffffffff1916815260200190815260200160002060006101000a81548160ff02191690831515021790555050565b828054600181600116156101000203166002900490600052602060002090601f016020900481019282601f106200023357805160ff191683800117855562000264565b8280016001018555821562000264579182015b828111156200026357825182559160200191906001019062000246565b5b50905062000273919062000277565b5090565b6200029c91905b80821115620002985760008160009055506001016200027e565b5090565b90565b6000620002ae601c8362000303565b91507f4552433136353a20696e76616c696420696e74657266616365206964000000006000830152602082019050919050565b60006020820190508181036000830152620002fc816200029f565b9050919050565b600082825260208201905092915050565b612f1380620003246000396000f3fe608060405234801561001057600080fd5b50600436106101215760003560e01c80636352211e116100ad578063b88d4fde11610071578063b88d4fde1461032e578063bd11f69d1461034a578063c87b56dd1461037a578063d85d3d27146103aa578063e985e9c5146103c657610121565b80636352211e146102765780636c0360eb146102a657806370a08231146102c457806395d89b41146102f4578063a22cb4651461031257610121565b806318160ddd116100f457806318160ddd146101c057806323b872dd146101de5780632f745c59146101fa57806342842e0e1461022a5780634f6ccce71461024657610121565b806301ffc9a71461012657806306fdde0314610156578063081812fc14610174578063095ea7b3146101a4575b600080fd5b610140600480360381019061013b9190612164565b6103f6565b60405161014d9190612a3f565b60405180910390f35b61015e61045d565b60405161016b9190612a5a565b60405180910390f35b61018e600480360381019061018991906121f7565b6104ff565b60405161019b91906129d8565b60405180910390f35b6101be60048036038101906101b99190612128565b610584565b005b6101c861069c565b6040516101d59190612c7c565b60405180910390f35b6101f860048036038101906101f39190612022565b6106ad565b005b610214600480360381019061020f9190612128565b61070d565b6040516102219190612c7c565b60405180910390f35b610244600480360381019061023f9190612022565b610768565b005b610260600480360381019061025b91906121f7565b610788565b60405161026d9190612c7c565b60405180910390f35b610290600480360381019061028b91906121f7565b6107ab565b60405161029d91906129d8565b60405180910390f35b6102ae6107e2565b6040516102bb9190612a5a565b60405180910390f35b6102de60048036038101906102d99190611fbd565b610884565b6040516102eb9190612c7c565b60405180910390f35b6102fc610943565b6040516103099190612a5a565b60405180910390f35b61032c600480360381019061032791906120ec565b6109e5565b005b61034860048036038101906103439190612071565b610b66565b005b610364600480360381019061035f91906121f7565b610bc8565b6040516103719190612a5a565b60405180910390f35b610394600480360381019061038f91906121f7565b610c81565b6040516103a19190612a5a565b60405180910390f35b6103c460048036038101906103bf91906121b6565b610e0c565b005b6103e060048036038101906103db9190611fe6565b610f0c565b6040516103ed9190612a3f565b60405180910390f35b6000806000837bffffffffffffffffffffffffffffffffffffffffffffffffffffffff19167bffffffffffffffffffffffffffffffffffffffffffffffffffffffff1916815260200190815260200160002060009054906101000a900460ff169050919050565b606060068054600181600116156101000203166002900480601f0160208091040260200160405190810160405280929190818152602001828054600181600116156101000203166002900480156104f55780601f106104ca576101008083540402835291602001916104f5565b820191906000526020600020905b8154815290600101906020018083116104d857829003601f168201915b5050505050905090565b600061050a82610fa0565b610549576040517f08c379a000000000000000000000000000000000000000000000000000000000815260040161054090612bdc565b60405180910390fd5b6004600083815260200190815260200160002060009054906101000a900473ffffffffffffffffffffffffffffffffffffffff169050919050565b600061058f826107ab565b90508073ffffffffffffffffffffffffffffffffffffffff168373ffffffffffffffffffffffffffffffffffffffff161415610600576040517f08c379a00000000000000000000000000000000000000000000000000000000081526004016105f790612c3c565b60405180910390fd5b8073ffffffffffffffffffffffffffffffffffffffff1661061f610fbd565b73ffffffffffffffffffffffffffffffffffffffff16148061064e575061064d81610648610fbd565b610f0c565b5b61068d576040517f08c379a000000000000000000000000000000000000000000000000000000000815260040161068490612b3c565b60405180910390fd5b6106978383610fc5565b505050565b60006106a8600261107e565b905090565b6106be6106b8610fbd565b82611093565b6106fd576040517f08c379a00000000000000000000000000000000000000000000000000000000081526004016106f490612c5c565b60405180910390fd5b610708838383611171565b505050565b600061076082600160008673ffffffffffffffffffffffffffffffffffffffff1673ffffffffffffffffffffffffffffffffffffffff16815260200190815260200160002061138890919063ffffffff16565b905092915050565b61078383838360405180602001604052806000815250610b66565b505050565b60008061079f8360026113a290919063ffffffff16565b50905080915050919050565b60006107db82604051806060016040528060298152602001612eb56029913960026113d19092919063ffffffff16565b9050919050565b606060098054600181600116156101000203166002900480601f01602080910402602001604051908101604052809291908181526020018280546001816001161561010002031660029004801561087a5780601f1061084f5761010080835404028352916020019161087a565b820191906000526020600020905b81548152906001019060200180831161085d57829003601f168201915b5050505050905090565b60008073ffffffffffffffffffffffffffffffffffffffff168273ffffffffffffffffffffffffffffffffffffffff1614156108f5576040517f08c379a00000000000000000000000000000000000000000000000000000000081526004016108ec90612b5c565b60405180910390fd5b61093c600160008473ffffffffffffffffffffffffffffffffffffffff1673ffffffffffffffffffffffffffffffffffffffff1681526020019081526020016000206113f0565b9050919050565b606060078054600181600116156101000203166002900480601f0160208091040260200160405190810160405280929190818152602001828054600181600116156101000203166002900480156109db5780601f106109b0576101008083540402835291602001916109db565b820191906000526020600020905b8154815290600101906020018083116109be57829003601f168201915b5050505050905090565b6109ed610fbd565b73ffffffffffffffffffffffffffffffffffffffff168273ffffffffffffffffffffffffffffffffffffffff161415610a5b576040517f08c379a0000000000000000000000000000000000000000000000000000000008152600401610a5290612afc565b60405180910390fd5b8060056000610a68610fbd565b73ffffffffffffffffffffffffffffffffffffffff1673ffffffffffffffffffffffffffffffffffffffff16815260200190815260200160002060008473ffffffffffffffffffffffffffffffffffffffff1673ffffffffffffffffffffffffffffffffffffffff16815260200190815260200160002060006101000a81548160ff0219169083151502179055508173ffffffffffffffffffffffffffffffffffffffff16610b15610fbd565b73ffffffffffffffffffffffffffffffffffffffff167f17307eab39ab6107e8899845ad3d59bd9653f200f220920489ca2b5937696c3183604051610b5a9190612a3f565b60405180910390a35050565b610b77610b71610fbd565b83611093565b610bb6576040517f08c379a0000000000000000000000000000000000000000000000000000000008152600401610bad90612c5c565b60405180910390fd5b610bc284848484611405565b50505050565b600a8181548110610bd557fe5b906000526020600020016000915090508054600181600116156101000203166002900480601f016020809104026020016040519081016040528092919081815260200182805460018160011615610100020316600290048015610c795780601f10610c4e57610100808354040283529160200191610c79565b820191906000526020600020905b815481529060010190602001808311610c5c57829003601f168201915b505050505081565b6060610c8c82610fa0565b610ccb576040517f08c379a0000000000000000000000000000000000000000000000000000000008152600401610cc290612c1c565b60405180910390fd5b6060600860008481526020019081526020016000208054600181600116156101000203166002900480601f016020809104026020016040519081016040528092919081815260200182805460018160011615610100020316600290048015610d745780601f10610d4957610100808354040283529160200191610d74565b820191906000526020600020905b815481529060010190602001808311610d5757829003601f168201915b50505050509050600060098054600181600116156101000203166002900490501415610da35780915050610e07565b600081511115610dd857600981604051602001610dc19291906129b4565b604051602081830303815290604052915050610e07565b6009610de384611461565b604051602001610df49291906129b4565b6040516020818303038152906040529150505b919050565b60001515600b82604051610e20919061299d565b908152602001604051809103902060009054906101000a900460ff16151514610e7e576040517f08c379a0000000000000000000000000000000000000000000000000000000008152600401610e7590612b7c565b60405180910390fd5b600a81908060018154018082558091505060019003906000526020600020016000909190919091509080519060200190610eb9929190611e07565b5060006001600a80549050039050610ed133826115a8565b6001600b83604051610ee3919061299d565b908152602001604051809103902060006101000a81548160ff0219169083151502179055505050565b6000600560008473ffffffffffffffffffffffffffffffffffffffff1673ffffffffffffffffffffffffffffffffffffffff16815260200190815260200160002060008373ffffffffffffffffffffffffffffffffffffffff1673ffffffffffffffffffffffffffffffffffffffff16815260200190815260200160002060009054906101000a900460ff16905092915050565b6000610fb682600261173690919063ffffffff16565b9050919050565b600033905090565b816004600083815260200190815260200160002060006101000a81548173ffffffffffffffffffffffffffffffffffffffff021916908373ffffffffffffffffffffffffffffffffffffffff160217905550808273ffffffffffffffffffffffffffffffffffffffff16611038836107ab565b73ffffffffffffffffffffffffffffffffffffffff167f8c5be1e5ebec7d5bd14f71427d1e84f3dd0314c0f7b2291e5b200ac8c7c3b92560405160405180910390a45050565b600061108c82600001611750565b9050919050565b600061109e82610fa0565b6110dd576040517f08c379a00000000000000000000000000000000000000000000000000000000081526004016110d490612b1c565b60405180910390fd5b60006110e8836107ab565b90508073ffffffffffffffffffffffffffffffffffffffff168473ffffffffffffffffffffffffffffffffffffffff16148061115757508373ffffffffffffffffffffffffffffffffffffffff1661113f846104ff565b73ffffffffffffffffffffffffffffffffffffffff16145b8061116857506111678185610f0c565b5b91505092915050565b8273ffffffffffffffffffffffffffffffffffffffff16611191826107ab565b73ffffffffffffffffffffffffffffffffffffffff16146111e7576040517f08c379a00000000000000000000000000000000000000000000000000000000081526004016111de90612bfc565b60405180910390fd5b600073ffffffffffffffffffffffffffffffffffffffff168273ffffffffffffffffffffffffffffffffffffffff161415611257576040517f08c379a000000000000000000000000000000000000000000000000000000000815260040161124e90612adc565b60405180910390fd5b611262838383611761565b61126d600082610fc5565b6112be81600160008673ffffffffffffffffffffffffffffffffffffffff1673ffffffffffffffffffffffffffffffffffffffff16815260200190815260200160002061176690919063ffffffff16565b5061131081600160008573ffffffffffffffffffffffffffffffffffffffff1673ffffffffffffffffffffffffffffffffffffffff16815260200190815260200160002061178090919063ffffffff16565b506113278183600261179a9092919063ffffffff16565b50808273ffffffffffffffffffffffffffffffffffffffff168473ffffffffffffffffffffffffffffffffffffffff167fddf252ad1be2c89b69c2b068fc378daa952ba7f163c4a11628f55a4df523b3ef60405160405180910390a4505050565b600061139783600001836117cf565b60001c905092915050565b6000806000806113b5866000018661183c565b915091508160001c8160001c8090509350935050509250929050565b60006113e4846000018460001b846118bf565b60001c90509392505050565b60006113fe82600001611950565b9050919050565b611410848484611171565b61141c84848484611961565b61145b576040517f08c379a000000000000000000000000000000000000000000000000000000000815260040161145290612a9c565b60405180910390fd5b50505050565b606060008214156114a9576040518060400160405280600181526020017f300000000000000000000000000000000000000000000000000000000000000081525090506115a3565b600082905060005b600082146114d3578080600101915050600a82816114cb57fe5b0491506114b1565b60608167ffffffffffffffff811180156114ec57600080fd5b506040519080825280601f01601f19166020018201604052801561151f5781602001600182028036833780820191505090505b50905060006001830390508593505b6000841461159b57600a848161154057fe5b0660300160f81b8282806001900393508151811061155a57fe5b60200101907effffffffffffffffffffffffffffffffffffffffffffffffffffffffffffff1916908160001a905350600a848161159357fe5b04935061152e565b819450505050505b919050565b600073ffffffffffffffffffffffffffffffffffffffff168273ffffffffffffffffffffffffffffffffffffffff161415611618576040517f08c379a000000000000000000000000000000000000000000000000000000000815260040161160f90612bbc565b60405180910390fd5b61162181610fa0565b15611661576040517f08c379a000000000000000000000000000000000000000000000000000000000815260040161165890612abc565b60405180910390fd5b61166d60008383611761565b6116be81600160008573ffffffffffffffffffffffffffffffffffffffff1673ffffffffffffffffffffffffffffffffffffffff16815260200190815260200160002061178090919063ffffffff16565b506116d58183600261179a9092919063ffffffff16565b50808273ffffffffffffffffffffffffffffffffffffffff16600073ffffffffffffffffffffffffffffffffffffffff167fddf252ad1be2c89b69c2b068fc378daa952ba7f163c4a11628f55a4df523b3ef60405160405180910390a45050565b6000611748836000018360001b611b42565b905092915050565b600081600001805490509050919050565b505050565b6000611778836000018360001b611b65565b905092915050565b6000611792836000018360001b611c4d565b905092915050565b60006117c6846000018460001b8473ffffffffffffffffffffffffffffffffffffffff1660001b611cbd565b90509392505050565b60008183600001805490501161181a576040517f08c379a000000000000000000000000000000000000000000000000000000000815260040161181190612a7c565b60405180910390fd5b82600001828154811061182957fe5b9060005260206000200154905092915050565b60008082846000018054905011611888576040517f08c379a000000000000000000000000000000000000000000000000000000000815260040161187f90612b9c565b60405180910390fd5b600084600001848154811061189957fe5b906000526020600020906002020190508060000154816001015492509250509250929050565b60008084600101600085815260200190815260200160002054905060008114158390611921576040517f08c379a00000000000000000000000000000000000000000000000000000000081526004016119189190612a5a565b60405180910390fd5b5084600001600182038154811061193457fe5b9060005260206000209060020201600101549150509392505050565b600081600001805490509050919050565b60006119828473ffffffffffffffffffffffffffffffffffffffff16611d99565b61198f5760019050611b3a565b600060608573ffffffffffffffffffffffffffffffffffffffff1663150b7a0260e01b6119ba610fbd565b8988886040516024016119d094939291906129f3565b604051602081830303815290604052907bffffffffffffffffffffffffffffffffffffffffffffffffffffffff19166020820180517bffffffffffffffffffffffffffffffffffffffffffffffffffffffff8381831617835250505050604051611a3a9190612986565b6000604051808303816000865af19150503d8060008114611a77576040519150601f19603f3d011682016040523d82523d6000602084013e611a7c565b606091505b509150915081611ad457600081511115611a995780518082602001fd5b6040517f08c379a0000000000000000000000000000000000000000000000000000000008152600401611acb90612a9c565b60405180910390fd5b600081806020019051810190611aea919061218d565b905063150b7a0260e01b7bffffffffffffffffffffffffffffffffffffffffffffffffffffffff1916817bffffffffffffffffffffffffffffffffffffffffffffffffffffffff19161493505050505b949350505050565b600080836001016000848152602001908152602001600020541415905092915050565b60008083600101600084815260200190815260200160002054905060008114611c415760006001820390506000600186600001805490500390506000866000018281548110611bb057fe5b9060005260206000200154905080876000018481548110611bcd57fe5b9060005260206000200181905550600183018760010160008381526020019081526020016000208190555086600001805480611c0557fe5b60019003818190600052602060002001600090559055866001016000878152602001908152602001600020600090556001945050505050611c47565b60009150505b92915050565b6000611c598383611de4565b611cb2578260000182908060018154018082558091505060019003906000526020600020016000909190919091505582600001805490508360010160008481526020019081526020016000208190555060019050611cb7565b600090505b92915050565b6000808460010160008581526020019081526020016000205490506000811415611d6457846000016040518060400160405280868152602001858152509080600181540180825580915050600190039060005260206000209060020201600090919091909150600082015181600001556020820151816001015550508460000180549050856001016000868152602001908152602001600020819055506001915050611d92565b82856000016001830381548110611d7757fe5b90600052602060002090600202016001018190555060009150505b9392505050565b60008060007fc5d2460186f7233c927e7db2dcc703c0e500b653ca82273b7bfad8045d85a47060001b9050833f9150808214158015611ddb57506000801b8214155b92505050919050565b600080836001016000848152602001908152602001600020541415905092915050565b828054600181600116156101000203166002900490600052602060002090601f016020900481019282601f10611e4857805160ff1916838001178555611e76565b82800160010185558215611e76579182015b82811115611e75578251825591602001919060010190611e5a565b5b509050611e839190611e87565b5090565b611ea991905b80821115611ea5576000816000905550600101611e8d565b5090565b90565b600081359050611ebb81612e58565b92915050565b600081359050611ed081612e6f565b92915050565b600081359050611ee581612e86565b92915050565b600081519050611efa81612e86565b92915050565b600082601f830112611f1157600080fd5b8135611f24611f1f82612cc4565b612c97565b91508082526020830160208301858383011115611f4057600080fd5b611f4b838284612e05565b50505092915050565b600082601f830112611f6557600080fd5b8135611f78611f7382612cf0565b612c97565b91508082526020830160208301858383011115611f9457600080fd5b611f9f838284612e05565b50505092915050565b600081359050611fb781612e9d565b92915050565b600060208284031215611fcf57600080fd5b6000611fdd84828501611eac565b91505092915050565b60008060408385031215611ff957600080fd5b600061200785828601611eac565b925050602061201885828601611eac565b9150509250929050565b60008060006060848603121561203757600080fd5b600061204586828701611eac565b935050602061205686828701611eac565b925050604061206786828701611fa8565b9150509250925092565b6000806000806080858703121561208757600080fd5b600061209587828801611eac565b94505060206120a687828801611eac565b93505060406120b787828801611fa8565b925050606085013567ffffffffffffffff8111156120d457600080fd5b6120e087828801611f00565b91505092959194509250565b600080604083850312156120ff57600080fd5b600061210d85828601611eac565b925050602061211e85828601611ec1565b9150509250929050565b6000806040838503121561213b57600080fd5b600061214985828601611eac565b925050602061215a85828601611fa8565b9150509250929050565b60006020828403121561217657600080fd5b600061218484828501611ed6565b91505092915050565b60006020828403121561219f57600080fd5b60006121ad84828501611eeb565b91505092915050565b6000602082840312156121c857600080fd5b600082013567ffffffffffffffff8111156121e257600080fd5b6121ee84828501611f54565b91505092915050565b60006020828403121561220957600080fd5b600061221784828501611fa8565b91505092915050565b61222981612d91565b82525050565b61223881612d7f565b82525050565b61224781612da3565b82525050565b600061225882612d31565b6122628185612d47565b9350612272818560208601612e14565b61227b81612e47565b840191505092915050565b600061229182612d31565b61229b8185612d58565b93506122ab818560208601612e14565b80840191505092915050565b60006122c282612d3c565b6122cc8185612d63565b93506122dc818560208601612e14565b6122e581612e47565b840191505092915050565b60006122fb82612d3c565b6123058185612d74565b9350612315818560208601612e14565b80840191505092915050565b60008154600181166000811461233e5760018114612363576123a7565b607f600283041661234f8187612d74565b955060ff19831686528086019350506123a7565b600282046123718187612d74565b955061237c85612d1c565b60005b8281101561239e5781548189015260018201915060208101905061237f565b82880195505050505b505092915050565b60006123bc602283612d63565b91507f456e756d657261626c655365743a20696e646578206f7574206f6620626f756e60008301527f64730000000000000000000000000000000000000000000000000000000000006020830152604082019050919050565b6000612422603283612d63565b91507f4552433732313a207472616e7366657220746f206e6f6e20455243373231526560008301527f63656976657220696d706c656d656e74657200000000000000000000000000006020830152604082019050919050565b6000612488601c83612d63565b91507f4552433732313a20746f6b656e20616c7265616479206d696e746564000000006000830152602082019050919050565b60006124c8602483612d63565b91507f4552433732313a207472616e7366657220746f20746865207a65726f2061646460008301527f72657373000000000000000000000000000000000000000000000000000000006020830152604082019050919050565b600061252e601983612d63565b91507f4552433732313a20617070726f766520746f2063616c6c6572000000000000006000830152602082019050919050565b600061256e602c83612d63565b91507f4552433732313a206f70657261746f7220717565727920666f72206e6f6e657860008301527f697374656e7420746f6b656e00000000000000000000000000000000000000006020830152604082019050919050565b60006125d4603883612d63565b91507f4552433732313a20617070726f76652063616c6c6572206973206e6f74206f7760008301527f6e6572206e6f7220617070726f76656420666f7220616c6c00000000000000006020830152604082019050919050565b600061263a602a83612d63565b91507f4552433732313a2062616c616e636520717565727920666f7220746865207a6560008301527f726f2061646472657373000000000000000000000000000000000000000000006020830152604082019050919050565b60006126a0601a83612d63565b91507f436f6c6f7220746f6b656e20616c7265616479206578697374730000000000006000830152602082019050919050565b60006126e0602283612d63565b91507f456e756d657261626c654d61703a20696e646578206f7574206f6620626f756e60008301527f64730000000000000000000000000000000000000000000000000000000000006020830152604082019050919050565b6000612746602083612d63565b91507f4552433732313a206d696e7420746f20746865207a65726f20616464726573736000830152602082019050919050565b6000612786602c83612d63565b91507f4552433732313a20617070726f76656420717565727920666f72206e6f6e657860008301527f697374656e7420746f6b656e00000000000000000000000000000000000000006020830152604082019050919050565b60006127ec602983612d63565b91507f4552433732313a207472616e73666572206f6620746f6b656e2074686174206960008301527f73206e6f74206f776e00000000000000000000000000000000000000000000006020830152604082019050919050565b6000612852602f83612d63565b91507f4552433732314d657461646174613a2055524920717565727920666f72206e6f60008301527f6e6578697374656e7420746f6b656e00000000000000000000000000000000006020830152604082019050919050565b60006128b8602183612d63565b91507f4552433732313a20617070726f76616c20746f2063757272656e74206f776e6560008301527f72000000000000000000000000000000000000000000000000000000000000006020830152604082019050919050565b600061291e603183612d63565b91507f4552433732313a207472616e736665722063616c6c6572206973206e6f74206f60008301527f776e6572206e6f7220617070726f7665640000000000000000000000000000006020830152604082019050919050565b61298081612dfb565b82525050565b60006129928284612286565b915081905092915050565b60006129a982846122f0565b915081905092915050565b60006129c08285612321565b91506129cc82846122f0565b91508190509392505050565b60006020820190506129ed600083018461222f565b92915050565b6000608082019050612a086000830187612220565b612a15602083018661222f565b612a226040830185612977565b8181036060830152612a34818461224d565b905095945050505050565b6000602082019050612a54600083018461223e565b92915050565b60006020820190508181036000830152612a7481846122b7565b905092915050565b60006020820190508181036000830152612a95816123af565b9050919050565b60006020820190508181036000830152612ab581612415565b9050919050565b60006020820190508181036000830152612ad58161247b565b9050919050565b60006020820190508181036000830152612af5816124bb565b9050919050565b60006020820190508181036000830152612b1581612521565b9050919050565b60006020820190508181036000830152612b3581612561565b9050919050565b60006020820190508181036000830152612b55816125c7565b9050919050565b60006020820190508181036000830152612b758161262d565b9050919050565b60006020820190508181036000830152612b9581612693565b9050919050565b60006020820190508181036000830152612bb5816126d3565b9050919050565b60006020820190508181036000830152612bd581612739565b9050919050565b60006020820190508181036000830152612bf581612779565b9050919050565b60006020820190508181036000830152612c15816127df565b9050919050565b60006020820190508181036000830152612c3581612845565b9050919050565b60006020820190508181036000830152612c55816128ab565b9050919050565b60006020820190508181036000830152612c7581612911565b9050919050565b6000602082019050612c916000830184612977565b92915050565b6000604051905081810181811067ffffffffffffffff82111715612cba57600080fd5b8060405250919050565b600067ffffffffffffffff821115612cdb57600080fd5b601f19601f8301169050602081019050919050565b600067ffffffffffffffff821115612d0757600080fd5b601f19601f8301169050602081019050919050565b60008190508160005260206000209050919050565b600081519050919050565b600081519050919050565b600082825260208201905092915050565b600081905092915050565b600082825260208201905092915050565b600081905092915050565b6000612d8a82612ddb565b9050919050565b6000612d9c82612ddb565b9050919050565b60008115159050919050565b60007fffffffff0000000000000000000000000000000000000000000000000000000082169050919050565b600073ffffffffffffffffffffffffffffffffffffffff82169050919050565b6000819050919050565b82818337600083830152505050565b60005b83811015612e32578082015181840152602081019050612e17565b83811115612e41576000848401525b50505050565b6000601f19601f8301169050919050565b612e6181612d7f565b8114612e6c57600080fd5b50565b612e7881612da3565b8114612e8357600080fd5b50565b612e8f81612daf565b8114612e9a57600080fd5b50565b612ea681612dfb565b8114612eb157600080fd5b5056fe4552433732313a206f776e657220717565727920666f72206e6f6e6578697374656e7420746f6b656ea2646970667358221220ec18037d1fc3b0f6b25a4a1c32bf0cbf85c5f0d0c5f6dfad9c348fc47832621f64736f6c63430006090033",
  "immutableReferences": {},
  "source": "// SPDX-License-Identifier: MIT\r\n\r\npragma solidity ^0.6.0;\r\npragma experimental ABIEncoderV2;\r\n\r\nimport \"./ERC721.sol\";\r\n\r\ncontract ColorToken is ERC721 {\r\n\tstring[] public colors;\r\nmapping(string=>bool) _colorExists;\r\nconstructor () ERC721(\"ColorToken\",\"CT\") public {\r\n\t}\r\n\t// E.G. color=\"#FFFFFF\"\r\n\tfunction mint(string memory _color) public {\r\n\t\t//require unique color\r\n\t\trequire(_colorExists[_color]==false,\"Color token already exists\");\r\n\t\tcolors.push(_color);\r\n\t\tuint _id = colors.length - 1;\r\n\t\t_mint(msg.sender, _id);\r\n\t\t_colorExists[_color] = true;\r\n\t\t//Call the mint function\r\n\t\t//Track it\r\n\t}\r\n}",
  "sourcePath": "C:\\Users\\Aditi Sharma\\Documents\\Blockchain\\smart contract essentials\\nft_Color\\contracts\\ColorToken.sol",
  "compiler": {
    "name": "solc",
    "version": "0.6.9+commit.3e3065ac.Emscripten.clang"
  },
  "schemaVersion": "3.2.0",
  "updatedAt": "2020-06-08T04:11:30.582Z",
  "networkType": "ethereum",
  "devdoc": {
    "methods": {
      "approve(address,uint256)": {
        "details": "Approves another address to transfer the given token ID The zero address indicates there is no approved address. There can only be one approved address per token at a given time. Can only be called by the token owner or an approved operator.",
        "params": {
          "to": "address to be approved for the given token ID",
          "tokenId": "uint256 ID of the token to be approved"
        }
      },
      "balanceOf(address)": {
        "details": "Gets the balance of the specified address.",
        "params": {
          "owner": "address to query the balance of"
        },
        "returns": {
          "_0": "uint256 representing the amount owned by the passed address"
        }
      },
      "baseURI()": {
        "details": "Returns the base URI set via {_setBaseURI}. This will be automatically added as a prefix in {tokenURI} to each token's URI, or to the token ID if no specific URI is set for that token ID."
      },
      "getApproved(uint256)": {
        "details": "Gets the approved address for a token ID, or zero if no address set Reverts if the token ID does not exist.",
        "params": {
          "tokenId": "uint256 ID of the token to query the approval of"
        },
        "returns": {
          "_0": "address currently approved for the given token ID"
        }
      },
      "isApprovedForAll(address,address)": {
        "details": "Tells whether an operator is approved by a given owner.",
        "params": {
          "operator": "operator address which you want to query the approval of",
          "owner": "owner address which you want to query the approval of"
        },
        "returns": {
          "_0": "bool whether the given operator is approved by the given owner"
        }
      },
      "name()": {
        "details": "Gets the token name.",
        "returns": {
          "_0": "string representing the token name"
        }
      },
      "ownerOf(uint256)": {
        "details": "Gets the owner of the specified token ID.",
        "params": {
          "tokenId": "uint256 ID of the token to query the owner of"
        },
        "returns": {
          "_0": "address currently marked as the owner of the given token ID"
        }
      },
      "safeTransferFrom(address,address,uint256)": {
        "details": "Safely transfers the ownership of a given token ID to another address If the target address is a contract, it must implement {IERC721Receiver-onERC721Received}, which is called upon a safe transfer, and return the magic value `bytes4(keccak256(\"onERC721Received(address,address,uint256,bytes)\"))`; otherwise, the transfer is reverted. Requires the msg.sender to be the owner, approved, or operator",
        "params": {
          "from": "current owner of the token",
          "to": "address to receive the ownership of the given token ID",
          "tokenId": "uint256 ID of the token to be transferred"
        }
      },
      "safeTransferFrom(address,address,uint256,bytes)": {
        "details": "Safely transfers the ownership of a given token ID to another address If the target address is a contract, it must implement {IERC721Receiver-onERC721Received}, which is called upon a safe transfer, and return the magic value `bytes4(keccak256(\"onERC721Received(address,address,uint256,bytes)\"))`; otherwise, the transfer is reverted. Requires the _msgSender() to be the owner, approved, or operator",
        "params": {
          "_data": "bytes data to send along with a safe transfer check",
          "from": "current owner of the token",
          "to": "address to receive the ownership of the given token ID",
          "tokenId": "uint256 ID of the token to be transferred"
        }
      },
      "setApprovalForAll(address,bool)": {
        "details": "Sets or unsets the approval of a given operator An operator is allowed to transfer all tokens of the sender on their behalf.",
        "params": {
          "approved": "representing the status of the approval to be set",
          "operator": "operator address to set the approval"
        }
      },
      "supportsInterface(bytes4)": {
        "details": "See {IERC165-supportsInterface}. Time complexity O(1), guaranteed to always use less than 30 000 gas."
      },
      "symbol()": {
        "details": "Gets the token symbol.",
        "returns": {
          "_0": "string representing the token symbol"
        }
      },
      "tokenByIndex(uint256)": {
        "details": "Gets the token ID at a given index of all the tokens in this contract Reverts if the index is greater or equal to the total number of tokens.",
        "params": {
          "index": "uint256 representing the index to be accessed of the tokens list"
        },
        "returns": {
          "_0": "uint256 token ID at the given index of the tokens list"
        }
      },
      "tokenOfOwnerByIndex(address,uint256)": {
        "details": "Gets the token ID at a given index of the tokens list of the requested owner.",
        "params": {
          "index": "uint256 representing the index to be accessed of the requested tokens list",
          "owner": "address owning the tokens list to be accessed"
        },
        "returns": {
          "_0": "uint256 token ID at the given index of the tokens list owned by the requested address"
        }
      },
      "tokenURI(uint256)": {
        "details": "Returns the URI for a given token ID. May return an empty string. If a base URI is set (via {_setBaseURI}), it is added as a prefix to the token's own URI (via {_setTokenURI}). If there is a base URI but no token URI, the token's ID will be used as its URI when appending it to the base URI. This pattern for autogenerated token URIs can lead to large gas savings. .Examples |=== |`_setBaseURI()` |`_setTokenURI()` |`tokenURI()` | \"\" | \"\" | \"\" | \"\" | \"token.uri/123\" | \"token.uri/123\" | \"token.uri/\" | \"123\" | \"token.uri/123\" | \"token.uri/\" | \"\" | \"token.uri/<tokenId>\" |=== Requirements: - `tokenId` must exist."
      },
      "totalSupply()": {
        "details": "Gets the total amount of tokens stored by the contract.",
        "returns": {
          "_0": "uint256 representing the total amount of tokens"
        }
      },
      "transferFrom(address,address,uint256)": {
        "details": "Transfers the ownership of a given token ID to another address. Usage of this method is discouraged, use {safeTransferFrom} whenever possible. Requires the msg.sender to be the owner, approved, or operator.",
        "params": {
          "from": "current owner of the token",
          "to": "address to receive the ownership of the given token ID",
          "tokenId": "uint256 ID of the token to be transferred"
        }
      }
    }
  },
  "userdoc": {
    "methods": {}
  }
}